:0602A60068656C6C6F003E
:10026A00012A35012901014001013F010223000051
:04027A000227000057
:10002E0053D9BF43B203120291120003E4FFFE1232
:10003E00023A7F927E09120255D293E53F60FC127E
:10004E00029E8F081200697BFF7A0279A67D057CDD
:0B005E0000120211E4F53FD2AD80E07B
:0D02910075A5FF43A41075E10175E2402240
:10000300C2AF759810758D96538EF4438E08858D07
:100013008B53890F438920C2ACD28EC299C298C236
:04002300ACD2AF228A
:10023A008E098F0AE4F5C8438E1075CB4075CA97AC
:0B024A00AFCAF5CD8FCCC2ADD2CA22E6
:10025500E4F591438E10EFF404F59285929453E6FC
:050265007F439104221B
:10027F00E4FDFCC3ED9FEC9E50070DBD00010C800B
:01028F00F27C
:01029000224B
:03002B000200765A
:09007600C0E0C0D075D000C00745
:10007F0020982D0522E52270020521C39420E52149
:10008F00648094CE40707521007522000524E5240C
:10009F0070020523942CE52364809481405880409E
:1000AF00C298AF99BF350E752100752200752300D8
:1000BF0075240080410522E52270020521C394209A
:1000CF00E521648094CE402E752100752200052411
:1000DF00E52470020523942CE52364809481401657
:1000EF00752300752400752901752A35754000C2E6
:0600FF009343E680C2AD50
:07010500D007D0D0D0E0329A
:03007300020198EF
:04019800C0E0C0D033
:10019C000526E52670020525C39420E52564809488
:1001AC00CE40307525007526000528E5287002051F
:1001BC00279482E527648094804018752700752861
:1001CC0000E540700E754001752A35D29353E67FD9
:0301DC00753F016B
:0501DF00D0D0D0E03299
:080069008F993099FDC2992224
:07029E003098FDC298AF99F2
:0102A5002236
:060211008B098A0A890B2B
:10021700AB09AA0AA90B850D82850C831201E4FF9D
:10022700120069050DE50D7002050CC39DE50C9CD8
:0202370040DEA7
:0102390022A2
:0300000002010CEE
:0C010C00787FE4F6D8FD758140020153B5
:1001E400BB010CE58229F582E5833AF583E02250D0
:1001F40006E92582F8E622BBFE06E92582F8E2221A
:0D020400E58229F582E5833AF583E4932233
:1001180002002EE493A3F8E493A34003F68001F2CF
:1001280008DFF48029E493A3F85407240CC8C333E8
:10013800C4540F4420C8834004F456800146F6DFB7
:10014800E4800B010204081020408090026AE47EDB
:10015800019360BCA3FF543F30E509541FFEE493AC
:10016800A360010ECF54C025E060A840B8E493A373
:10017800FAE493A3F8E493A3C8C582C8CAC583CA9E
:10018800F0A3C8C582C8CAC583CADFE9DEE780BE56
:01027E00007F
:00000001FF
